:100000000C946B0A0C94930A0C94930A0C94930A24
:100010000C94930A0C94930A0C94930A0C94930AEC
:100020000C94930A0C94930A0C94930A0C94930ADC
:100030000C94930A0C94930A0C94930A0C94930ACC
:100040000C94930A0C94930A0C94930A0C94930ABC
:100050000C94930A0C94930A0C94930A0C94930AAC
:100060000C94930A0C94930A0C94930A0C94930A9C
:100070000C94930A0C94930A0C94930A0C94930A8C
:100080000C94930A0C94930A0C94930A0C94930A7C
:100090000C94930A0C94930A0C94930A0C94930A6C
:1000A0000C94930A0C94930A0C94930A05A84CCDD3
:1000B000B2D44EB93836A9020C50B9918688083CA2
:1000C000A6AAAA2ABE000000803F6E616E00696E7B
:1000D000660000407A10F35A00A0724E1809001012
:1000E000A5D4E80000E87648170000E40B540200AD
:1000F00000CA9A3B000000E1F505000080969800D8
:10010000000040420F000000A08601000000102700
:1001100000000000E8030000000064000000000090
:100120000A00000000000100000000002C76D888C2
:10013000DC674F0823DFC1DFAE59E1B1B796E5E3D5
:10014000E453C63AE651997696E8E6C28426EB89EE
:100150008C9B62ED407C6FFCEFBC9C9F40F2BAA58B
:100160006FA5F490055A2AF75C936B6CF9676DC123
:100170001BFCE0E40D47FEF520E6B500D0ED902E27
:100180000300943577050080841E080000204E0A85
:10019000000000C80C333333330F986E12831141C3
:1001A000EF8D2114893BE65516CFFEE6DB18D1848E
:1001B0004B381BF77C1D901DA4BBE42420328472B5
:1001C0005E228100C9F124ECA1E53D272A07000049
:1001D00000000000000000000000203C0E100C3E5B
:1001E000003C241C00043C0438241C0000000000D7
:1001F00000000000000000002A07003E2A3E003CEC
:10020000203C003C04003C043C003A003C043C0020
:100210004C547C00003C0E100C3E0038243C200066
:100220003C043C002A070000000000000000000021
:1002300000000000203E2A3E0018141C507E0018CA
:10024000141C10000000000000000000000000006E
:100250002A070000000000382422320E043C100C53
:10026000301C2C003C0404003F1028243C003C04BB
:100270003C003824243F000000000000010203017C
:100280000405010205010607010405010603010634
:100290000301040501020301040801020901020827
:1002A0000106040104050106070104050106040115
:1002B000040801060A0104080106040106090104F4
:1002C0000801060A010408010609010209010B0CD4
:1002D000010604010B04010604010B0C01060A06C9
:1002E00002030106030102030106030602030606D8
:1002F0000306020906040806020806060A060408A0
:10030000060609060609060408060209060405068B
:10031000020306020506060C06040806060A060481
:100320000806060C06040506060706040506060C64
:100330000606030604050606070604050606030668
:100340000203060B0406060C060B0C06060C060B35
:100350000406060706060901020901060901020949
:10036000060609060209010408060405010405063B
:100370000405010408060408060B0C010B04060B17
:1003800004010B0C010B04060B0C06060901060AFE
:1003900006060A01060A06060901060906060701FD
:1003A0000603060603010603060607010607060202
:1003B00008010408010208010408060208060408EE
:1003C00001020906020801020806020801020906E4
:1003D00002090604050102050104050102050604DF
:1003E00005060205010205060203010203060203D7
:1003F000010205060205060B0C06060C06060A0697
:10040000060A01060A060B0C060B0C01060A010B74
:100410000C010604010607010B04060607010B0484
:10042000010607010B04060607060B04010203017F
:10043000040501040301040501020301040601048B
:100440000601020301040201020701040201020382
:100450000104020102070104080104080102070166
:100460000407010405010906010905010906010443
:100470000501040601040201090801090201090835
:100480000104020104080A0902010402010902012F
:1004900004020A09020A04020A04080A09020A09F3
:1004A000080A09020A04080A04020A0408010908E1
:1004B0000104080109080A04080A09080109080AD0
:1004C00009020109020A09020109080A09080B04C4
:1004D000020B09080B09020B09080B04020B0408A4
:1004E0000C09020B04020B09020B04020C09020C9A
:1004F00004020C02070C04080C04070C04080C028C
:10050000070C04020C02030C04020C02070C040288
:100510000C02030C04060C04060C02030C04050C6C
:1005200004050C02030C04030C04080C09020C095A
:10053000080C09020C04080C04020C04060C090542
:100540000C09060C09050C04060C04050C04080B28
:1005500009080B04080B09080C04080C09080B090E
:10056000080C09020B09020C09020B09080C090806
:100570000A09050104050109050104050A09050A1E
:1005800004050A04060A09050A09060A09050A04F7
:10059000060A04050A040601090601040601090603
:1005A0000A04060A09060109060A09050109050ADD
:1005B00009050109060A09060B04050B09060B09C2
:1005C000050B09060B04050B04060C09050B0405B5
:1005D0000B09050B04050C09050C04050C04060B9E
:1005E00009060B04060B09060C04060C09060B0988
:1005F000060C09050B09050C09050B09060C090673
:100600000C04030102030104030102030C04030CA4
:1006100002030C02070102030C02030102030C0295
:10062000070102070C020701040701020701040782
:100630000C02070C04070104070A04080104080A55
:1006400004080104070B04080C04070B0408010448
:10065000070B04080C04070C04080A04080B040226
:100660000A04020B04020A04080B04080A04020A22
:1006700004060104060A04060A04020B04060A041E
:10068000020104060104020B04020B04060A040220
:100690000B04060B04020C04060C04060B04020CEB
:1006A00004020A04060B04050A04050B04050A04E7
:1006B000060B04060A0405010403010405010403F2
:1006C0000A04050C04030B04050C04030A04050CBE
:1006D00004030B04050C04050102030104050104D5
:1006E00003010405010203010205010406010307D9
:1006F00001030601040101030701040601030801C7
:1007000004030103020104050103020104030103C0
:1007100007010401010308010308010401010403A6
:1007200001030201040501030901040A010309018F
:10073000040501030901040A01030A010307010B6F
:1007400008010B07010B080103070103080103025D
:10075000010B09010B02010B090103020103090C42
:100760000B02010302010B020103020C0B020C033A
:10077000020C03090C0B020C0B090C0B020C0309F5
:100780000C03020C0309010B09010309010B090CFD
:1007900003090C0B09010B090C0B02010B020C0BDA
:1007A00002010B090C0B090D03020D0B090D0B02C5
:1007B0000D0B090D03020D03090E0B020D03020DB3
:1007C0000B020D03020E0B020E03020E02030E04B7
:1007D000050E02050E04050E02030E04010E040AA6
:1007E0000E03090E030A0E04050E03090E040A0E79
:1007F00003020E04050E03080E04010E03080E0486
:10080000050E03090E04050E03020E03080E040173
:100810000E03070E04060E03070E04010E03070E57
:1008200004060E03060E03090E0B020E0B090E0B37
:10083000020E03090E03020E03080E0B070E0B082F
:100840000E0B070E03080E03070E03090D0B090D0F
:1008500003090D0B090E03090E0B090D0B090E0BF5
:10086000020D0B020E0B020D0B090E0B090C0B07F0
:10087000010307010B070103070C0B070C03070C0F
:1008800003080C0B070C0B080C0B070C03080C03DC
:10089000070C0308010B08010308010B080C0308EF
:1008A0000C0B08010B080C0B07010B070C0B0701C5
:1008B0000B080C0B080D03070D0B080D0B070D0B98
:1008C000080D03070D03080E0B070D03070D0B079B
:1008D0000D03070E0B070E03070E03080D0B080D83
:1008E00003080D0B080E03080E0B080D0B080E0B6A
:1008F000070D0B070E0B070D0B080E0B080E03065A
:100900000104060103060104060E03060E04060E8A
:1009100002050102030E02030102050102030E0299
:10092000050E040A01030A01040A01030A0E040A5F
:100930000E030A01030A0C03090103090C03090150
:10094000030A0D03090E030A0D030901030A0D032F
:10095000090E030A0E03090C03090D03020C03021E
:100960000D03020C03090D03090C03020C0308011B
:1009700003080C03080C03020D03080C0302010317
:10098000080103020D03020D03080C03020D030806
:100990000D03020E03080E03080D03020E03020CE2
:1009A00003080D03070C03070D03070C03080D03D1
:1009B000080C03070103060103070103060C0307E4
:1009C0000E03060D03070E03060C03070E03060DA8
:1009D00003070E03070E02050104050102050104C9
:1009E000050E02050E04050E040A0104050E040599
:1009F0000104050E040A01040A0E04010104060E96
:100A000004060104060E04010104010104030104AB
:100A1000010102030E0401010203010401010203AA
:100A20000E04010E0203F0F89C8E8783878E9CF8DB
:100A3000F00000FEFF0303030303070EFCF80000B1
:100A4000FEFF0303030303070EFCF80000FFFF0093
:100A5000000000000000FFFF0000FEFF838383838F
:100A600083C7EE7C380000F8FC0E07030303070E73
:100A7000FCF800003F7FE0C08080C0E07F3FFFFFC8
:100A800001010101010101FFFF0000FFFF0C0C0C3F
:100A90000C1C3E77E3C100007FFFC0C0C0C0C0E0B7
:100AA000703F1F00001F3F70E0C0C0C0E0703F1FDC
:100AB00000007FFFC1C1C1C1C1E3773E1C00001F20
:100AC0003F70E0C0C0C0E0703F1F000000000001A8
:100AD000FFFF01000000D5F08D14A1C881CFD9F12E
:100AE000AF2000801C00000000000000000000009B
:100AF000000080F0C00000000000C04040C00000C6
:100B00000000000000F00E02020C70C00000008027
:100B1000C0C00080F01E021CE000000000000000C9
:100B2000000000000000000000000000C07E030183
:100B30000101030C30E00000000000000000008014
:100B400080C040404040404080000000F80C04FC61
:100B500000000000C040800000000080C040402035
:100B60003008040301000080808080808080804005
:100B700060180F00013EE020380E010000BFC020C9
:100B800038F800E01F000000000000FF040201E14F
:100B900030090701000000001FF000000000000005
:100BA00000000000C06010101010D03C03000000D6
:100BB00000000000000003FC8080E0180E0201012C
:100BC000000000000000000001070C181F60C0FFBB
:100BD000C070180EC360110F080403010000C0604C
:100BE000202020202003010080603018040601002E
:100BF0000000000000000101020202020201C040E8
:100C00008001030202020206040404050404070131
:100C1000000000000000000000030EF88000F01C3F
:100C2000040C30EF01008060180601000000000095
:100C300000000080C06020206080000000000000F4
:100C40000000000000000000000000000000030E93
:100C50001830FC03000000000000E0300C07010029
:100C60000000000000080403000000000000000075
:100C7000000000000000000002020201010101006A
:100C80000306040400000000000000000000000053
:100C90000000000000000000000000000101010051
:100CA000000000010101000000000000000000023F
:100CB000020203010000000000010304080808000C
:100CC0000000000000000000000000000000000024
:100CD000000000000000000000000700000000000D
:100CE00000000000002020000000000000000000C4
:100CF00000000000000000FEFCF8F0E08080000032
:100D000000000000000000FEFFFFFFFFFFFFFFFFED
:100D1000FFFFFFFFFFFFFFFFFFFFFFFFFFFFFFFEE4
:100D2000FCF8F0E0C08000FFFFFFFFFFFFFFFFFFC8
:100D3000FFFFFFFFFFFFFFFFFFFFFFFFFFFFFF7F43
:100D40007F3F0F07070300000000000000000000C5
:100D5000000000000000007F3F3F1F07030300006A
:100D60000000000000000020200000000000000043
:100D70000000C0C0E0F8FCFCFE0000000000000025
:100D800000000000000000000000C0E0E0F0FCFEF9
:100D9000FEFFFFFFFFFFFFFFFFFFFFFFFFFFFFFF64
:100DA000FFFFFFFFFFFFFFFFFF000103070F1F3FD4
:100DB0007FFFFFFFFFFFFFFFFFFFFFFFFFFFFFFFC3
:100DC000FFFFFFFFFFFFFFFF7F00000000000000AC
:100DD00000000101070F1F3F7F000000000000001E
:100DE00000000000000000000001020301040301F4
:100DF00002050104060102030102060102030104C7
:100E0000060104030107080102060107090107089A
:100E1000010A0801020B01070801020B010201018E
:100E2000070801020101020601020301070901028C
:100E30000601020501070901020301020C0107096D
:100E400001020501070901020C010D09010E0B0148
:100E5000060F010E0F01070801060401060F010627
:100E60000401070901061001060B01060F010E0B14
:100E700001070801060F01060B010604010708011E
:100E80000709010610010709010611010604010EF8
:100E900010010E04010E10010604010610120E04CA
:100EA000010604010E04010604120E0412060412C7
:100EB0000610120E04120E10120E04120610120664
:100EC00004120610010E10010610010E1012061079
:100ED000120E10010E10120E04010E04120E040167
:100EE0000E10120E100D06040D0E100D0E040D0E38
:100EF000100D06040D0610130E040D06040D0E044D
:100F00000D0604130E041306041307091306101329
:100F10000611130610130205130604130610130717
:100F20000913020C130610130E04130E10130E04F3
:100F300013061013060413060F130E0B130E0F13D4
:100F4000060F13070B130E0B1306041302031306ED
:100F50000F13020113060F13020313060F130201EE
:100F600013070B13061013020C13020513020C13C4
:100F70000709130D091304061302031304031302D4
:100F800003130406130201130604130205130203DC
:100F900013020B13070B13020113140813070B138F
:100FA000020B13070B1314081307081306100D0E7A
:100FB000100D06100D0E10130610130E100D0E104E
:100FC000130E040D0E04130E040D0E10130E101349
:100FD000060B0D060B0D0E0B130E0B13060B0D0E51
:100FE0000B13060B130E0B13070B120E0B01060B44
:100FF000010E0B12060B01060B120E0B12060F123E
:101000000E0B120E0F120E0B12060F12060B12060B
:101010000F010E0F01060F010E0F12060F120E0F19
:10102000010E0F120E0B010E0B120E0B010E0F1202
:101030000E0F0D060B0D0E0F0D0E0B0D0E0F0D06E8
:101040000B0D060F13060F0D0E0F0D060F0D0E0FD5
:1010500013060F130E0F0D0E0F130E0B0D0E0B13A9
:101060000E0B0D0E0F130E0F130708010A080107D0
:1010700008010A08130708131408130D09010709CA
:10108000010D09010709130D0913070901061112C2
:1010900006100106101206100106110D06101306A7
:1010A000110D06100106110D06101306111306107E
:1010B0001206100D06041206040D06041206100D89
:1010C000061012060412060F01060F12060F120672
:1010D000040D060F12060401060F0106040D060496
:1010E0000D060F1206040D060F0D060413060F134E
:1010F000060F0D060413060412060F0D060B12064A
:101100000B0D060B12060F0D060F13040301040648
:10111000130406010403010406130403130403016A
:101120000203010403010203130403130203130265
:101130000C01020513020501020513020C01020C49
:1011400001070815070813070813020101020B1312
:10115000020B01020B130201010201130D0901022E
:101160000C13020C01020C130D09010D09130403E9
:101170001302031302051302050102050104031300
:101180000203010403010203010403130203130415
:1011900003130205010403130403010709130611D5
:1011A00001061113061101070913070901020601BF
:1011B00002010104061302010104060102010104F7
:1011C0000613020113040613070813060B13070B7B
:1011D00001060B15070801070812060B1507080181
:1011E000060B0D060B15070812060B1507080D0652
:1011F0000B13060B13070815070813060B13020B36
:10120000010A08131408010A0813020B01020B401B
:1012100018000000000000000000000000000000B6
:1012200000C0C0C0C0C0808080000000000000007E
:10123000000000000000000000000040C0C00000EE
:10124000000000000000000000000000000000009E
:101250000000000000000060646464646424040012
:10126000E0FE1F1918F8EC070380FE3E0280C0FE66
:101270001E0280983C32F2E20600C0FC3F0702C228
:10128000FE1E0000606464646464040000000000EA
:10129000000000000000000000000000000000014D
:1012A0000101010001010101000001010101010131
:1012B0000100010101010100000101010100010122
:1012C000010100000000000000000000000000001C
:1012D00000801C0000000000000000000000000072
:1012E00080F0C00000000000C04040C000000000CE
:1012F000000000F00E02020C0000000000000000E0
:1013000000000000000000000000000000000000DD
:1013100000000000000000000000000000000000CD
:1013200000000000000000000000000000000000BD
:1013300000000000000080000000F80C04FC000029
:101340000000C040800000000080C0404020300805
:1013500004030100008080808080808080406018CD
:101360000F00013EE020380E010000BFC000000069
:1013700000E01F000000000000000000000000006E
:10138000000000000000000000000000000000005D
:10139000000000000000000000000000000000004D
:1013A000000000000000000000000000000000003D
:1013B00000000000000001070C181F60C0FFC07093
:1013C000180EC360110F080403010000C060202044
:1013D0002020200301008060301804060100000076
:1013E000000000000101020202020201C040800070
:1013F00000000000000000000000000000000000ED
:1014000000000000000000000000000000000000DC
:1014100000000000000000000000000000000000CC
:10142000000000000000008000000000000000003C
:10143000000000000000000000000000030E183053
:10144000FC03000000000000E0300C070100000079
:10145000000000080403000000000000000000007D
:101460000000000000000202020101010100030669
:101470000404000000000000000000000000000064
:10148000000000000000000000000000000000005C
:10149000000000000000000000000000000000004C
:1014A000000000000000000103040808080000001C
:1014B000000000000000000000000000000000002C
:1014C0000000000000000000070000000000000015
:1014D00000000000B41F11241FBECFEFDAE0DEBF12
:1014E000CDBF12E0A0E0B1E0EEE3F1E502C005906F
:1014F0000D92A236B107D9F728E0A2E6B2E001C00A
:101500001D92AD35B207E1F71AE0CBE6DAE004C090
:101510002197FE010E946426CA36D107C9F70E94AE
:10152000950A0C949D280C940000CF93DF9300D073
:1015300000D0CDB7DEB7789484B5826084BD84B521
:10154000816084BD85B5826085BD85B5816085BDBE
:10155000109281008091810082608093810080914F
:101560008100816080938100809180008160809300
:101570008000809191008260809391008091910021
:1015800081608093910080919000816080939000B1
:101590008091C10084608093C1008091C10082600D
:1015A0008093C1008091C10081608093C1008091CF
:1015B000C30081608093C3008091C00082608093EB
:1015C000C0008091C20081608093C20080917A0047
:1015D000846080937A0080917A00826080937A00A0
:1015E00080917A00816080937A0080917A008B7F6D
:1015F00080937A0080917A008D7F80937A00809129
:101600007A00816080937A0080917A00806880936C
:101610007A0081EC80937C0085B1806F85B984B1BC
:10162000877E84B984B1876E84B95E9A5F988AB1E7
:10163000806D8AB9769A6E9881B3806F81BB8998E4
:1016400080B38D7080BB80E58CBD81E08DBD85E071
:1016500090E00E94691C5F9A85E090E00E94691CFE
:101660005E985C98E6EDFAE084918EBD00000DB4C2
:1016700007FEFDCF31962AE0E33EF207A9F75C9A18
:1016800081E88093640080916500816080936500AB
:10169000ADE52A2EA4E03A2EF10180E0A0E0B8E00A
:1016A00000800EBC8111012C1197A0FDFDCF01928D
:1016B000B9F70DB48FB18095807F669B88601C9BC5
:1016C000846087FF0EC0C7C48FB18095807F669B02
:1016D00088601C9B84608471843109F439C00E9445
:1016E000CC1D8FB18095807F669B88601C9B846039
:1016F00082FF51C02D988FB18095807F669B886056
:101700001C9B846084788438F9F62D9A0E94CC1D45
:101710002F9882E090E00E94C3258F3F29F06FEF61
:1017200082E090E00E94CB2584EF91E00E94691C4A
:101730002F9A8FB18095807F982F9860669B892F14
:10174000982F94601C9B892F8478843891F3BCCFA8
:101750002D9A0E94CC1D2E9882E090E00E94C32515
:10176000882329F060E082E090E00E94CB2584EF9E
:1017700091E00E94691C2E9A8FB18095807F982FEE
:101780009860669B892F982F94601C9B892F847189
:10179000843191F3A4CF2D9A81E090E00E94C3257B
:1017A00081FF9AC0382F3470732E82FD4CC400EF35
:1017B0001FEF66246394F8E08F2E912C512C8FB18B
:1017C0008095807F669B88601C9B846086FDECC34F
:1017D000772021F00430110509F452C4F10180E0B2
:1017E00098E000800EBC6110012C019780FDFDCFB8
:1017F0000192B9F70DB4680117FD7DC247E0C4221C
:10180000DD24980117FD81C23595279535952795DB
:101810003595279517FD83C286E29AE0D901B695E2
:10182000BA2FAA27B795A795AD014F585B4F5C8398
:101830004B8360E070E05401AC18BD082F3F5FEFB0
:101840003507E4F02F3FAFEF3A0709F408C1C114A0
:10185000D10409F030C14B815C81485A5F4FAB81A4
:10186000BC81BA83A983FC01F490EC90FE28FD9220
:10187000BA83A9833196A417B507B1F7AC01485ACA
:101880005F4F8B819C8180589F4F7C012F5F3F4F22
:10189000CA01685A7F4FFC82EB82603B710571F68A
:1018A000F10180E098E000800EBC5110012C0197FE
:1018B00080FDFDCF0192B9F70DB40E94D11D0F5FDD
:1018C0001F4F0931110509F07ACF7110C1C380E9AA
:1018D00091E00E94691C2D9A0E94C71D8FB1669BE2
:1018E000E8C01C9BF9CF8095807FB1F780E18093A1
:1018F000F10240E050E060E87FE3409379035093C9
:101900007A0360937B0370937C0340938903509325
:101910008A0360938B0370938C03409399035093D5
:101920009A0360939B0370939C0383E08093BA03B4
:1019300094E0909377039093780390E4ECEAF1E0DD
:10194000A7E3B3E001900D929A95E1F74093F50279
:101950005093F6026093F7027093F8024AEE56E451
:1019600067E77FE340930503509306036093070303
:101970007093080302EF13E824E83EE300930903A1
:1019800010930A0320930B0330930C0302EF13E828
:1019900024E83EEB00930D0310930E0320930F03F6
:1019A0003093100340931103509312036093130379
:1019B0007093140380933603809164008E7F80932C
:1019C000640080917A00806480937A0080917A002C
:1019D00086FDFCCF60917800709179008091640061
:1019E000816080936400CB01A0E0B0E0DC01992726
:1019F0008827BC01CD0161507109810991090E94BC
:101A000032245091F202109162023091F30240911F
:101A1000F1028091ED029091EE022091EF02882474
:101A2000839460E1962E10925C0410925B04105F28
:101A300010936202612F651B311169C0641708F0B1
:101A40006CC06F5F641778F7B1E0B3BF889513BEC1
:101A50005091F202109162023091F302E4CFC1146E
:101A6000D10409F40BCFEB80FC80A0E8EA0EF11C56
:101A7000FA82E9824B815C8148525F4F5C834B83E1
:101A8000FC01D701449150E00A2C02C055954795BE
:101A90000A94E2F75C91452B4D93BA83A983319662
:101AA0004B815C814A175B0769F7AC01485A5F4F6D
:101AB000EDCE83B111CFEB80FC80A0E8EA0EF11CE3
:101AC000FA82E982AC01485A5F4FFC0184910C2CE8
:101AD00001C0880F0A94EAF7AB81BC819C91892BE5
:101AE0008D93BC83AB83849190E00A2C02C09595C2
:101AF00087950A94E2F7A981BA819C91892B8D93ED
:101B0000BA83A98331964E175F0701F7BFCE609362
:101B1000F4021092F30230E086CF8092F302109329
:101B2000F20201969093EE028093ED022093F00270
:101B30002FB12095207F669B28601C9B24602093FA
:101B4000EF0230E0F10131113FEF00243193319386
:101B5000319331930394D1F73091E902313009F494
:101B60002CC108F4E6C0323009F0E0C08091E702F1
:101B7000843008F08BC190E0880F991FFC01EC5075
:101B8000FE4FA080B180FC01E451FE4FA081B181E5
:101B9000BA83A9838091E3029091E402A091E502C7
:101BA000B091E60288349105A105B10508F422C27E
:101BB00088549109A109B1094497A105B10508F418
:101BC00077C1E3EEFAE08491E4EEFAE0E490082FC6
:101BD0009F01AF0160E070E080E090E00E947E1C19
:101BE00003EA12E02FED32E03C832B83D801FE9014
:101BF000EE90DE90CE908D01B0E8CB16D104D0F4FB
:101C0000EB81FC81408151816281738140345105B7
:101C100088F461E041FD64E040FD660F42FD62959D
:101C2000487F949ED0011124AC0DA35ABB4F8C91D8
:101C3000682B6C930E94E4232B013C010E94E42357
:101C40002CE130E040E050E00E94D9256B017C019E
:101C500077FD20C0C301B2012CE030E040E050E04D
:101C60000E94D925AB01BC01465C5F4F6F4F7F4F8F
:101C7000C60121E081FD24E080FD220F82FD229536
:101C8000887F989ED0011124A40FA35ABB4F8C913A
:101C9000282B2C934B815C81445051095C834B83EE
:101CA00052E00336150709F0A1CF22ED30E044EBF6
:101CB00050E0B50189819A810E9446105091F2024C
:101CC000109162023091F3024091F1028091ED0295
:101CD0009091EE022091EF02F10160E0A0E0B8E007
:101CE00000800EBC6111012C1197A0FDFDCF019267
:101CF000B9F70DB498CECC24DD24C01AD10A47E040
:101D0000C422DD24980117FF7FCD295F3F4F359511
:101D10002795359527953595279517FF7DCD21502A
:101D20003109C4018C199D096C0176CD512F31E028
:101D3000D3CF8091060190910701843B910509F46E
:101D400041C1209105012111ADC007969093070173
:101D500080930601833D91050CF01FC186399105E2
:101D60000CF091C1F2E0F093E8021092050181E0DD
:101D700061E00E94121F20910601309107014FE09F
:101D800050E064E072E089EE9DE00E944610809190
:101D9000F0022091EF0283FD03C023FD8092E9024F
:101DA0005091F202109162023091F3024091F102DF
:101DB0008091ED029091EE028FCF2091E70229836E
:101DC000243008F068C030E0220F331FF901EC50D6
:101DD000FE4F60817181F901E451FE4F8081918154
:101DE000F901E450FE4FA080B180C0900601D09070
:101DF000070196014FE050E00E944610E7E6FDE043
:101E00000491E8E6FDE0E4909F01AF0160E170E03D
:101E100083E090E00E947E1CE5EEFCE00491E6EE9B
:101E2000FCE0E4909F01AF0160E170E08DE590E09F
:101E30000E947E1CA5014F5F5F4FF5010491FA01DE
:101E4000E4909A0168E370E08BE290E00E947E1CCF
:101E5000F981F13009F4EFC00CF4AAC029812230D5
:101E600009F467C0233009F06BC080910401C80EEB
:101E7000D11C87FDDA94D0920701C09206018F5FD2
:101E800085300CF4E2C0809204015AC01A82198293
:101E9000A12CB12C7FCEA12CB12C80E090E060E091
:101EA00070E0A3CF0797909307018093060152CF6C
:101EB00060E080E00E94121F0E94E4236B017C011D
:101EC0000E94E4232B013C01C701B60124EB30E062
:101ED00040E050E00E94D925FB01EC54FF4FFC8309
:101EE000EB83C301B2012FE030E040E050E00E94FC
:101EF000D9252B813C81AB01B50189819A810E9452
:101F000046108091E3029091E402A091E502B09125
:101F1000E6020196A11DB11D8093E3029093E402B5
:101F2000A093E502B093E6028BEF94E30197F1F7FB
:101F3000C5CE54E0C50ED11CD0920701C092060157
:101F40008091F0022091EF0285FD06C025FF04C0BC
:101F5000B981B150B093E7029091E70286FD05C0C8
:101F600026FF03C09F5F9093E70283FD05C023FF18
:101F700003C0E2E0E093E90297FD2EC0943014F034
:101F80001092E7025091F2023091F3024091F10277
:101F90008091ED029091EE029FCEE2E0E093E802A4
:101FA0008092050181E0E4CE2E9A2F9A2D9A94CC4E
:101FB000F111C6CF37E0C30ED11CD0920701C092F9
:101FC0000601BECF2091E802222309F4BACE2150A7
:101FD0002093E80280E0CCCE83E08093E70250912A
:101FE000F2023091F3024091F1028091ED02909162
:101FF000EE0272CE60E080E00E94121F22ED30E01F
:102000004FE050E0B50189819A810E94461080918D
:10201000E3029091E402A091E502B091E6020196FC
:10202000A11DB11D8093E3029093E402A093E50209
:10203000B093E60243CE45E0C40ED11CD092070116
:10204000C09206017DCF2E98B2CB8093040178CF49
:102050002F9A2D983CCC5C9885EA8EBD00000DB47B
:1020600007FEFDCF5C9A2E982F982D9880916400E2
:1020700080628093640081E083BF889513BEFCCFAB
:102080002E9A2F98ABCB80E073CE08952F923F927B
:102090004F925F926F927F928F929F92AF92BF9278
:1020A000CF92DF92EF92FF920F931F93CF93DF9324
:1020B000CDB7DEB7C05BD1090FB6F894DEBF0FBE57
:1020C000CDBF7C01C356DF4F79836883CD59D040A3
:1020D00089012DB73EB7C555DF4F39832883CB5AC9
:1020E000D040DB016D917D918D919C910E94DC2609
:1020F0009B01220F331FF901E60FF71FC955DF4F70
:10210000F983E883C75AD04080915B0490915C04C6
:102110008E0F9F1F90935C0480935B0480E090E09F
:10212000A0E4B0E48093BB039093BC03A093BD03F1
:10213000B093BE031E161F0614F00C941A1CC8019F
:1021400068E671E00E943C269C01C756DF4FE8829A
:10215000C959D040C656DF4FF882CA59D04060E016
:1021600070E080E490E4C755DF4F19821882C95AA5
:10217000D0408E010D5B1F4FC957DF4F1983088375
:10218000C758D04002541109CB57DF4F1983088339
:10219000C558D0407901330F000B110BC355DF4FE9
:1021A000E882F9820A831B83CD5AD040C756DF4F9D
:1021B000E881F981C959D0402491C356DF4FE881A5
:1021C000F981CD59D04004E0209FE00DF11D11248C
:1021D00000811181228133810093BF031093C003DA
:1021E0002093C1033093C203C756DF4FE881F981C2
:1021F000C959D0403196E491C356DF4FE880F98049
:10220000CD59D04004E0E09FE00CF11C1124F7010F
:1022100000811181228133810093C3031093C40391
:102220002093C5033093C603C756DF4FE881F98179
:10223000C959D0403296E491C356DF4FE880F98007
:10224000CD59D04004E0E09FE00CF11C1124F701CF
:1022500000811181228133810093C7031093C80349
:102260002093C9033093CA03C756DF4FE881F98131
:10227000C959D0403396E491C356DF4FE880F980C6
:10228000CD59D04004E0E09FE00CF11C1124F7018F
:1022900000811181228133810093CB031093CC0301
:1022A0002093CD033093CE03C756DF4FE881F981E9
:1022B000C959D0403496E491C356DF4FE880F98085
:1022C000CD59D04004E0E09FE00CF11C1124F7014F
:1022D00000811181228133810093CF031093D003B9
:1022E0002093D1033093D203C756DF4FE881F981A1
:1022F000C959D0403596E491C356DF4FE880F98044
:10230000CD59D04004E0E09FE00CF11C1124F7010E
:1023100000811181228133810093D3031093D40370
:102320002093D5033093D603C756DF4FE881F98158
:10233000C959D0403696E491C356DF4FE880F98002
:10234000CD59D04004E0E09FE00CF11C1124F701CE
:1023500000811181228133810093D7031093D80328
:102360002093D9033093DA03C756DF4FE881F98110
:10237000C959D0403796E491C356DF4FE880F980C1
:10238000CD59D04004E0E09FE00CF11C1124F7018E
:1023900000811181228133810093DB031093DC03E0
:1023A0002093DD033093DE03C756DF4FE881F981C8
:1023B000C959D0403896E491C356DF4FE880F98080
:1023C000CD59D04004E0E09FE00CF11C1124F7014E
:1023D00000811181228133810093DF031093E00398
:1023E0002093E1033093E203C957DF4FA881B981FD
:1023F000C758D040E0E41D92EA95E9F713E0CD57C5
:10240000DF4F1883C358D040CB57DF4FA881B98125
:10241000C558D040E0E41D92EA95E9F722961FAF37
:102420002297F1E02396FFAF23970E94DC266B01F1
:102430007C01C355DF4F688179818A819B81CD5AA8
:10244000D0400E94142729E33AEF4EE85CE30E9453
:10245000DF272B013C01CC57DF4F1883C458D040F5
:102460000E944C284B015C01C301B2010E94D72697
:1024700027966CAF7DAF8EAF9FAF279724013501B4
:1024800077FA709477F870942F964CAE5DAE6EAE7E
:102490007FAE2F9720E030E040E85FE367962CAFF7
:1024A0003DAF4EAF5FAF67976F968CAE9DAEAEAE51
:1024B000BFAE6F97A7966CAF7DAF8EAF9FAFA7975C
:1024C000C114D10409F440C47FEB272E73E0372EEA
:1024D000860101501109C157DF4F19830883CF5876
:1024E000D040C757DF4F19821882C958D04081E0C9
:1024F00093E03FC0AE014F5F5F4FBE016D5B7F4F0A
:10250000C8010E94D61D8CE0F801D10101900D9206
:102510008A95E1F7C357DF4FE880F980CD58D04066
:102520000FB6F894FEBE0FBEEDBE0CE0200E311CBF
:10253000C757DF4FE880F980C958D040C157DF4FF7
:1025400008811981CF58D040E016F10609F41AC16C
:10255000CD57DF4F9881C358D04023968FAD239736
:1025600087010F5F1F4FC757DF4F19830883C95873
:10257000D040EDB6FEB6C357DF4FF982E882CD58A2
:10258000D040D1014D905D906D907C90139749861D
:102590005A866B867C861496CD90DD90ED90FC90EB
:1025A0001797CD82DE82EF82F88618968D909D90E7
:1025B000AD90BC901B9789829A82AB82BC82989F17
:1025C000802D1124EDB7FEB704E08002E019F10977
:1025D00011240FB6F894FEBF0FBEEDBF0DB71EB7A6
:1025E0000F5F1F4F933009F085CF27962CAD3DAD7F
:1025F0004EAD5FAD2797C501B4010E94DF27CD56D0
:10260000DF4F688379838A839B83C359D0402B969D
:102610002CAD3DAD4EAD5FAD2B97C701B6010E940D
:10262000DF279B01AC01CD56DF4F688179818A811C
:102630009B81C359D0400E946B26CD56DF4F6883E3
:1026400079838A839B83C359D0402F962CAD3DADAF
:102650004EAD5FAD2F97C301B2010E94DF279B01F2
:10266000AC01CD56DF4F688179818A819B81C35946
:10267000D0400E946B26D8016D937D938D939C93DF
:10268000139763962CAD3DAD4EAD5FAD6397C5011D
:10269000B4010E94DF27CD56DF4F688379838A8398
:1026A0009B83C359D04067962CAD3DAD4EAD5FAD19
:1026B0006797C701B6010E94DF279B01AC01CD5689
:1026C000DF4F688179818A819B81C359D0400E9404
:1026D0006B26CD56DF4F688379838A839B83C359EA
:1026E000D0406B962CAD3DAD4EAD5FAD6B97C30149
:1026F000B2010E94DF279B01AC01CD56DF4F6881FC
:1027000079818A819B81C359D0400E946B26F80150
:1027100064837583868397836F962CAD3DAD4EADF4
:102720005FAD6F97C501B4010E94DF274B015C01CB
:10273000A3962CAD3DAD4EAD5FADA397C701B601DD
:102740000E94DF279B01AC01C501B4010E946B26EA
:102750006B017C01A7962CAD3DAD4EAD5FADA7974B
:10276000C301B2010E94DF279B01AC01C701B60182
:102770000E946B26D80118966D937D938D939C9340
:102780001B97C1CE6091BB037091BC038091BD03C8
:102790009091BE030E94DC26AB011B0111E0211ABF
:1027A0003108CB57DF4FA881B981C558D040E0E44C
:1027B0001D92EA95E9F723E022962FAF2297F1E0E8
:1027C0002396FFAF2397672B11F40C943F1C0FEB5C
:1027D00013E01DC0AE014F5F5F4F65EF72E0CE01A9
:1027E0008D5B9F4F0E94D61D8CE0FE01ED5BFF4F7D
:1027F000D80101900D928A95E1F7B1E02B1A3108CA
:10280000045F1F4FEFEF2E163E0609F401C1D801F9
:102810004D905D906D907C90139749865A866B869B
:102820007C861496CD90DD90ED90FC901797CD822C
:10283000DE82EF82F88618968D909D90AD90BC90C8
:102840001B9789829A82AB82BC8280913503833048
:1028500009F62091F5023091F6024091F70250916D
:10286000F802C501B4010E94DF27C757DF4F688314
:1028700079838A839B83C958D0402091F902309193
:10288000FA024091FB025091FC02C701B6010E947E
:10289000DF279B01AC01C757DF4F688179818A81AF
:1028A0009B81C958D0400E946B26C757DF4F688371
:1028B00079838A839B83C958D0402091FD0230914F
:1028C000FE024091FF0250910003C301B2010E9439
:1028D000DF279B01AC01C757DF4F688179818A816F
:1028E0009B81C958D0400E946B2627966CAF7DAF64
:1028F0008EAF9FAF27972091010330910203409143
:10290000030350910403C501B4010E94DF27C75798
:10291000DF4F688379838A839B83C958D040209195
:102920000503309106034091070350910803C70146
:10293000B6010E94DF279B01AC01C757DF4F6881BA
:1029400079818A819B81C958D0400E946B26C757E4
:10295000DF4F688379838A839B83C958D040209155
:10296000090330910A0340910B0350910C03C301FA
:10297000B2010E94DF279B01AC01C757DF4F68817E
:1029800079818A819B81C958D0400E946B262B9601
:102990006CAF7DAF8EAF9FAF2B9720910D03309121
:1029A0000E0340910F0350911003C501B4010E9422
:1029B000DF274B015C0120911103309112034091FC
:1029C000130350911403C701B6010E94DF279B0136
:1029D000AC01C501B4010E946B266B017C01209102
:1029E0001503309116034091170350911803C3014A
:1029F000B2010E94DF279B01AC01C701B6010E9412
:102A00006B262F966CAF7DAF8EAF9FAF2F97ECCE1E
:102A10006091BB037091BC038091BD039091BE0394
:102A20000E94DC26AB018B0101501109C157DF4F19
:102A300019830883CF58D040C957DF4FA881B98187
:102A4000C758D040E0E41D92EA95E9F723E0CD575E
:102A5000DF4F2883C358D040F1E0CC57DF4FF883D5
:102A6000C458D040672B09F486C10FEB13E0C95658
:102A7000DF4F19830883C759D0401801C757DF4F6C
:102A800019821882C958D04081E03BC0AE014D5B2D
:102A90005F4F69E773E0C8010E94D61D8CE0F80122
:102AA000D10101900D928A95E1F7C357DF4FE8807D
:102AB000F980CD58D0400FB6F894FEBE0FBEEDBEE3
:102AC0000CE0200E311CC757DF4FE880F980C95851
:102AD000D040C157DF4F08811981CF58D040E01650
:102AE000F10609F402C5CC57DF4F8881C458D040A5
:102AF00087010F5F1F4FC757DF4F19830883C958DE
:102B0000D040EDB6FEB6C357DF4FF982E882CD580C
:102B1000D040D1014D905D906D907C9013972F9691
:102B20004CAE5DAE6EAE7FAE2F971496CD90DD901D
:102B3000ED90FC9017972B96CCAEDDAEEEAEFFAECF
:102B40002B9718968D909D90AD90BC901B972796D3
:102B50008CAE9DAEAEAEBFAE27979091B903989F55
:102B6000802D1124EDB7FEB704E08002E019F109D1
:102B700011240FB6F894FEBF0FBEEDBF0DB71EB700
:102B80000F5F1F4F933009F081CF2091790330916F
:102B90007A0340917B0350917C03C501B4010E94EC
:102BA000DF27CD56DF4F688379838A839B83C359A0
:102BB000D04020917D0330917E0340917F0350915E
:102BC0008003C701B6010E94DF279B01AC01CD56EF
:102BD000DF4F688179818A819B81C359D0400E94EF
:102BE0006B26CD56DF4F688379838A839B83C359D5
:102BF000D040209181033091820340918303509112
:102C00008403C301B2010E94DF279B01AC01CD56B2
:102C1000DF4F688179818A819B81C359D0400E94AE
:102C20006B26D8016D937D938D939C931397209180
:102C30008503309186034091870350918803C50135
:102C4000B4010E94DF27CD56DF4F688379838A83E2
:102C50009B83C359D0402091890330918A034091CE
:102C60008B0350918C03C701B6010E94DF279B01A3
:102C7000AC01CD56DF4F688179818A819B81C35930
:102C8000D0400E946B26CD56DF4F688379838A83BC
:102C90009B83C359D04020918D0330918E03409186
:102CA0008F0350919003C301B2010E94DF279B0163
:102CB000AC01CD56DF4F688179818A819B81C359F0
:102CC000D0400E946B26F8016483758386839783C6
:102CD000209191033091920340919303509194037A
:102CE000C501B4010E94DF274B015C0120919503CF
:102CF000309196034091970350919803C701B60114
:102D00000E94DF279B01AC01C501B4010E946B2624
:102D10006B017C012091990330919A0340919B03B0
:102D200050919C03C301B2010E94DF279B01AC01BB
:102D3000C701B6010E946B26D80118966D937D934A
:102D40008D939C931B97AACEC957DF4FA881B98159
:102D5000C758D040E0E41D92EA95E9F7CD57DF4F20
:102D60001883C358D040F1E0CC57DF4FF883C458E4
:102D7000D04040E050E09A01220F331F7901E40E69
:102D8000F51EC056DF4FF982E882C05AD0400BEBE7
:102D900013E0C157DF4F19830883CF58D04001E0BB
:102DA00010E0C956DF4F19830883C759D040780116
:102DB000C056DF4F08811981C05AD040E016F10695
:102DC0000CF05DC320E030E040E852E4C157DF4F33
:102DD000A881B981CF58D04014966D917D918D9185
:102DE0009C9117970E946B260E94DC26462EC357A3
:102DF000DF4F7883CD58D040662E772E20E030E02C
:102E000040E052E4C157DF4FE881F981CF58D0400C
:102E100060857185828593850E946B260E94DC26E1
:102E20006B017C011B0120E030E040E852E4C15717
:102E3000DF4FA881B981CF58D04050966D917D91D8
:102E40008D919C9153970E946B260E94DC26562EF2
:102E5000CD56DF4F6883C359D040C556DF4F7883C6
:102E6000CB59D04020E030E040E052E4C157DF4F82
:102E7000E881F981CF58D04064897589868997891E
:102E80000E946B260E94DC264B015C01C757DF4F76
:102E900079836883C958D04020E030E040E852E4AC
:102EA000C157DF4FA881B981CF58D0405C966D9152
:102EB0007D918D919C915F970E946B260E94DC26EC
:102EC000062FC456DF4F7883CC59D040162F20E010
:102ED00030E040E052E4C157DF4FE881F981CF583C
:102EE000D04060A171A182A193A10E946B260E9493
:102EF000DC26AB01C956DF4F28813981C759D04044
:102F0000275F3F4FC956DF4F39832883C759D040C9
:102F10008C149D040CF48AC26C157D054CF0A10143
:102F20001B01162D602EC456DF4F7880CC59D0403F
:102F3000C757DF4FE880F980C958D0402E143F04AE
:102F400014F5C757DF4F9881C958D040C657DF4F97
:102F50008881CA58D040C757DF4F39822882C95864
:102F6000D040292E382ECD56DF4F8881C359D0400E
:102F7000CD56DF4F6882C359D040682EC556DF4F0B
:102F80007880CB59D040F12E942ECD56DF4FE8817A
:102F9000C359D040AE2EA11AA7FC68C2DD24D39439
:102FA000C757DF4F0881C958D040C556DF4F088347
:102FB000CB59D040202F2919C456DF4F6882CC59F5
:102FC000D040562C511A57FC4DC288248394C156C8
:102FD000DF4F2882CF59D040322D3919A2160CF07C
:102FE00024C401E053160CF01BC444244394632F03
:102FF000032E000C770B832F8595C757DF4FA881D1
:10300000B981C958D0404A175B0709F433C2A22FCF
:10301000022E000CBB0B922F9595E12CCE55DF4F65
:1030200079826882C25AD040CC55DF4F39822882DB
:10303000C45AD040702E3D2CCA55DF4FE883C65A83
:10304000D0404E2D50E04A175B070CF092C0F116AD
:1030500008F0D8C1F12FEF2D7110D9C1E3949A0D6A
:10306000492F50E04A175B070CF49BC1921BB12C0F
:103070004110A2C1850D482F50E0461757070CF4A8
:103080008EC1831B00E04FE3D42ED91408F45CC03A
:10309000DF2CEF1508F4DE2E1D1508F4D12E4F2D70
:1030A000FF1608F44F2F411708F4412FC42ECD18F6
:1030B0004D2D50E0FA01EC0DF11DC357DF4FF983A0
:1030C000E883CD58D040EF2B09F43EC0FFE7FD1553
:1030D000D8F1C357DF4FE881F981CD58D040E138AE
:1030E000F10514F0E0E8F0E0ED19C92CD12CD594ED
:1030F000C794D594C794D594C794D694DC2CCC248B
:10310000D794C794C40ED51EA601435A5B4FC3572C
:10311000DF4F59834883CD58D040F92DF770CC2428
:10312000C39401C0CC0CFA95EAF75FEF5E0FEE2373
:1031300059F0C357DF4FE881F981CD58D040408125
:103140004C2941935150D8F7711001C0F30CFB0C7E
:10315000411001C0180D100F9394492D50E0C7572E
:10316000DF4FE881F981C958D040E417F50709F02D
:1031700068CFCE55DF4F68807980C25AD040CC5599
:10318000DF4F28803980C45AD040F12FCA55DF4F15
:10319000E881C65AD040C456DF4F1881CC59D04080
:1031A000CD56DF4FD880C359D0401D1917FD64C1DB
:1031B00001E0C156DF4FB880CF59D040C556DF4F30
:1031C000E880CB59D040BE181B150CF020C321E07D
:1031D000C757DF4F2883C958D040AB2D0B2C000CAC
:1031E000BB0B9B2D9595B7FDABC020E040E050E0B8
:1031F000C357DF4F39822882CD58D040352C582C08
:10320000892C9B2CEF1708F0E6C06F01C757DF4FE2
:10321000E880C958D040E110E8C04A175B070CF0BD
:10322000ACC0910F492F50E04A175B070CF49DC0CA
:103230009919F12C4F2F50E04615570509F4A4C0F9
:10324000411038C3830D482F50E0461757070CF440
:103250009DC0831BE12C4FE3481508F451C0EC15C9
:1032600008F4CE2EFC1508F4CF2EDE1608F4DE2E60
:10327000DF1608F4DF2EDC18AC2CB12CA5014D0DA7
:10328000511D41155105E1F10F2EFFE7DF2EF02D05
:10329000DC14B0F14138510514F040E850E0242E20
:1032A0002C18C82CD12CD594C794D594C794D594F8
:1032B000C794D694DC2CCC24D794C794CA0CDB1CBE
:1032C000A601435A5B4F6A01582D5770AA24A39454
:1032D00001C0AA0C5A95EAF7BB24BA94B20C22207A
:1032E00079F0A601C82E2F2E8B2DBE2EFA01D0808C
:1032F000DA28D192AF018150C8F78C2DF22DEB2D39
:10330000C757DF4F5881C958D040511101C0E00F55
:10331000EF0D411001C0F50DFE0D8394482D50E0D6
:10332000C357DF4FE880F980CD58D040E416F5064A
:103330003CF02F5F422F50E0A417B5070CF062CF8E
:10334000C157DF4F08811981CF58D0400C5D1F4F06
:10335000C157DF4F19830883CF58D040C956DF4F7C
:10336000E880F980C759D04023CDE00F2F5F422F6E
:1033700050E04A175B070CF454CFF12C4F2F50E06C
:103380004615570509F05CCFE12C65CFF50D4F2FA1
:1033900050E06416750609F055CFE12C5CCF180D8E
:1033A00069CEF30C4E2D50E04A175B070CF456CE55
:1033B000B12C442009F45ECE850D482F50E046170D
:1033C00057070CF472C2831B482F50E0461757076B
:1033D000D4F7082D58CEDE2ECF2EC757DF4FE8800A
:1033E000C958D040EE2009F418CF4A175B072CF6D5
:1033F000910F492F50E04A175B070CF4BECF991983
:10340000F02E18CFFF2DE12F772009F427CEE3947B
:103410009A0D492F50E04A175B0754F2921B492F2F
:1034200050E04A175B07D4F7B32C22CE6815790514
:103430000CF4A9CD652CCD56DF4F4882C359D0403E
:10344000C357DF4F1881CD58D040C556DF4F188382
:10345000CB59D0401401C757DF4FD982C882C95811
:10346000D0405DCD519488248A94B1CDA194DD24BF
:10347000DA9496CDF12F8FCE11950FEF9ACEC755D6
:10348000DF4F08811981C95AD040075F1F4FC755C8
:10349000DF4F19830883C95AD040C756DF4F0881D0
:1034A0001981C959D040075F1F4FC756DF4F198395
:1034B0000883C959D040C955DF4FE880F980C75A01
:1034C000D040C755DF4F08811981C95AD0400E1529
:1034D0001F050CF0AFC16091BB037091BC038091DC
:1034E000BD039091BE030C94D6106091BB03709104
:1034F000BC038091BD039091BE030E94DC26611540
:10350000710509F4D4C11B01C956DF4F0881198127
:10351000C759D04026C0CA01AE014F5F5F4F67E375
:1035200073E00E94D61DC757DF4FE881F981C95863
:10353000D0408CE0D80101900D928A95E1F7C357F5
:10354000DF4FE880F980CD58D0400FB6F894FEBE2A
:103550000FBEEDBE045F1F4F21E0221A310809F4AF
:103560004AC1EDB6FEB6C357DF4FF982E882CD58A7
:10357000D040CB57DF4FA881B981C558D040E0E497
:103580001D92EA95E9F7F1E02396FFAF239720E03B
:1035900030E040E85FE32D873E874F87588BD801A6
:1035A0004D905D906D907C90139749865A866B86FE
:1035B0007C861496CD90DD90ED90FC901797CD828F
:1035C000DE82EF82F88618968D909D90AD90BC902B
:1035D0001B9789829A82AB82BC82B4E02296BFAFED
:1035E000229780917703EDB7FEB724E08202E019BD
:1035F000F10911240FB6F894FEBF0FBEEDBF4DB711
:103600005EB74F5F5F4FC757DF4F59834883C95835
:10361000D040833009F07FCF2091370330913803B9
:103620004091390350913A03C501B4010E94DF274C
:10363000C157DF4F688379838A839B83CF58D040FB
:1036400020913B0330913C0340913D0350913E0358
:10365000C701B6010E94DF279B01AC01C157DF4FB4
:10366000688179818A819B81CF58D0400E946B26E6
:10367000C157DF4F688379838A839B83CF58D040BB
:1036800020913F0330914003409141035091420308
:10369000C301B2010E94DF279B01AC01C157DF4F7C
:1036A000688179818A819B81CF58D0400E946B26A6
:1036B000C757DF4FA881B981C958D0406D937D931A
:1036C0008D939C9313972091430330914403409131
:1036D000450350914603C501B4010E94DF27C1573D
:1036E000DF4F688379838A839B83CF58D0402091B2
:1036F0004703309148034091490350914A03C70161
:10370000B6010E94DF279B01AC01C157DF4F6881E2
:1037100079818A819B81CF58D0400E946B26C15706
:10372000DF4F688379838A839B83CF58D040209171
:103730004B0330914C0340914D0350914E03C30114
:10374000B2010E94DF279B01AC01C157DF4F6881A6
:1037500079818A819B81CF58D0400E946B26C757C0
:10376000DF4FE881F981C958D0406483758386832F
:10377000978320914F033091500340915103509112
:103780005203C501B4010E94DF274B015C01209167
:103790005303309154034091550350915603C70190
:1037A000B6010E94DF279B01AC01C501B4010E9454
:1037B0006B266B017C012091570330915803409197
:1037C000590350915A03C301B2010E94DF279B01A4
:1037D000AC01C701B6010E946B26C757DF4FA88115
:1037E000B981C958D04018966D937D938D939C9361
:1037F0001B97FD019ECE6091BB037091BC0380912D
:10380000BD039091BE030E94DC26AB01B4CA9B2D80
:10381000B12E192FC757DF4F1882C958D040DDCCC1
:10382000832F352D582E412CE2CB822F2A2DA82E06
:1038300000E0D8CBC555DF4FE880F980CB5AD040A7
:103840000FB6F894FEBE0FBEEDBEC055DF4F0FB6EB
:10385000F894DEBF0FBECDBFDF91CF911F910F91C6
:10386000FF90EF90DF90CF90BF90AF909F908F90A0
:103870007F906F905F904F903F902F900895C95721
:10388000DF4FA881B981C758D040E0E41D92EA9586
:10389000E9F7CD57DF4F2883C358D040F1E0CC572C
:1038A000DF4FF883C458D04066CA00E0ECCB40E05C
:1038B00050E061CA830D482F50E0461757070CF4BB
:1038C00063CD831B482F50E046175707D4F7E52CEC
:1038D000C2CC28EE33E0AC01429FC001439F900D63
:1038E000529F900D11248230910538F0880F991F56
:1038F000880F991F05970197F1F708952F923F922E
:103900005F926F927F928F929F92AF92BF92CF926F
:10391000DF92EF92FF920F931F93CF93DF9300D02C
:10392000CDB7DEB7A02EB12CD501A80FB91F1A163E
:103930001B060CF098C0803891050CF094C09B01D8
:103940002E0D311D121613060CF08DC0603471055A
:103950000CF089C04115510509F485C0262F277048
:10396000722E9B0177FD07C13595279535952795D3
:1039700035952795122F77FDF2C097FDF6C020E010
:10398000E0E0F0E0A038B1050CF4A5C030E8832EEB
:10399000881A821A612F012E000C770B1F3F0CF43E
:1039A000D8C020E030E0912CB1E0AE2DA77009F432
:1039B000B0E0E694E694E694EB0E6E0D711D69306E
:1039C00071051CF068E0E62EE11AE918910E692DE8
:1039D00070E86703800D911D11248E0F9F1FE20F69
:1039E000F31FE40FF51F21E030E0072C02C0220F87
:1039F000331F0A94E2F7EE20B1F1482D50E060E861
:103A000070E06B01C41AD50AA41AB50A6E2C690CB1
:103A10000FEF080D10E00F5F1F4F8820E9F097FCB3
:103A20007FC0A6E0A9150CF040C0DC01A35ABB4F33
:103A3000AF01400F511F71102AC0F490F29EB001E7
:103A4000F39E700D11247C91672B6D9331964E1768
:103A50005F0799F7800F911F9394EA0DFB1D8C0D62
:103A60009D1D9610DACF0F900F90DF91CF911F918F
:103A70000F91FF90EF90DF90CF90BF90AF909F900D
:103A80008F907F906F905F903F902F900895F4906B
:103A9000F29EB001F39E700D11247C91672B6D9303
:103AA00031964E175F0799F7D5CF711017C0DC011B
:103AB000A35ABB4FAF01400F511FF490F29EB001CB
:103AC000F39E700D11247C91672B6D9331964E17E8
:103AD0005F0799F7BFCF802E821A5CCFBC01635A73
:103AE0007B4FAC0143525B4F1A017F01E00EF11E88
:103AF0005490529EA001539E500D11245A83498325
:103B0000DB015C91452B4D93BD01D1015C914A8154
:103B1000452B4D931D013196EE15FF0549F79ACFC0
:103B2000772061F1DC01A352BB4FBF01600F711F11
:103B3000F490F29EA001F39E500D11245A83498304
:103B40005C914A81452B4D933196E617F70781F733
:103B500081CF962E9094099D9001112425CF772036
:103B600009F40BCF1FEF120F08CFEE27FF27E81B3A
:103B7000F90B2E2F07CF295F3F4FF6CEAF01400F35
:103B8000511F64913196E417F507D9F763CF8BE3A2
:103B90009DE00197F1F708958BEF94E30197F1F71A
:103BA00008958BE59AEE0197F1F708958F929F9211
:103BB000AF92BF92EF92FF920F931F93CF93DF9339
:103BC0007C01EB018A01FA0120813181428153811C
:103BD000688179818A819B810E94DF274B015C018A
:103BE000F80124813581468157816C817D818E81E8
:103BF0009F810E94DF279B01AC01C501B4010E9497
:103C00006B264B015C01F801208531854285538587
:103C1000688579858A859B850E94DF279B01AC0199
:103C2000C501B4010E946B264B015C01F80124859B
:103C30003585468557856C857D858E859F850E9457
:103C4000DF279B01AC01C501B4010E946B26F7017F
:103C50006083718382839383F80120813181428163
:103C60005381688979898A899B890E94DF274B0162
:103C70005C01F80124813581468157816C897D89F9
:103C80008E899F890E94DF279B01AC01C501B40189
:103C90000E946B264B015C01F8012085318542852D
:103CA0005385688D798D8A8D9B8D0E94DF279B01BE
:103CB000AC01C501B4010E946B264B015C01F80107
:103CC00024853585468557856C8D7D8D8E8D9F8DA0
:103CD0000E94DF279B01AC01C501B4010E946B2645
:103CE000F7016483758386839783F801208131818E
:103CF0004281538168A179A18AA19BA10E94DF27FB
:103D00004B015C01F80124813581468157816CA10A
:103D10007DA18EA19FA10E94DF279B01AC01C5015F
:103D2000B4010E946B264B015C01F80120853185AE
:103D30004285538568A579A58AA59BA50E94DF27A2
:103D40009B01AC01C501B4010E946B264B015C01D3
:103D5000F80124853585468557856CA57DA58EA5FA
:103D60009FA50E94DF279B01AC01C501B4010E9401
:103D70006B26F7016087718782879387F80120811E
:103D800031814281538168A979A98AA99BA90E949E
:103D9000DF274B015C01F801248135814681578181
:103DA0006CA97DA98EA99FA90E94DF279B01AC0168
:103DB000C501B4010E946B264B015C01F80120850E
:103DC00031854285538568AD79AD8AAD9BAD0E9442
:103DD000DF279B01AC01C501B4010E946B264B019A
:103DE0005C01F80124853585468557856CAD7DAD30
:103DF0008EAD9FAD0E94DF279B01AC01C501B401D0
:103E00000E946B26F7016487758786879787DF9105
:103E1000CF911F910F91FF90EF90BF90AF909F9027
:103E20008F9008958F929F92AF92BF92EF92FF92E0
:103E30000F931F93CF93DF93C62F611183C0E3EEDF
:103E4000FAE0AF014F5F5F4F0491FA01E4909A01ED
:103E500060E070E0082E000C990B0E947E1CC111DE
:103E600074C003EA12E083EEE82E82E0F82EE80147
:103E700094E2892E912CA12CB12C19C088839983AE
:103E8000AA83BB830E94E423A50194010E94D92543
:103E9000DC01CB014C96A11DB11DF701B293A29399
:103EA000929382937F01F2E0C336DF07B1F00E9464
:103EB000E4232497DC01CB018F779927AA27B078D8
:103EC000B7FFDCCF0197A109B10980689F6FAF6F81
:103ED000BF6F0196A11DB11DD1CFEFEDF2E090E1D2
:103EE000D801BE90AE909E908E908D01B0E88B165A
:103EF0009104C0F440815181628173814034510545
:103F000088F461E041FD64E040FD660F42FD62958A
:103F1000487F949FD0011124A80DA35ABB4F8C91C8
:103F2000682B6C93349782E003361807C9F6DF914B
:103F3000CF911F910F91FF90EF90BF90AF909F9006
:103F40008F900895E1EDF2E17CCFEFE0F2E1049192
:103F5000E0E1F2E1E4909F01AF0160E070E080E217
:103F600090E00E947E1C7DCFEAEEF2E080E692E0D7
:103F7000918380831582168280E187831482138265
:103F8000118620E4E5EFF2E0DF01322F1D923A9531
:103F9000E9F793E09093350381E080933603E7E3FC
:103FA000F3E0DF01322F1D923A95E9F79093770302
:103FB00080937803E9E7F3E0DF011D922A95E9F7A2
:103FC0009093B9038093BA030895A0E1B0E0EBEEBB
:103FD000FFE10C9462237C011B016A01FC01178242
:103FE0001682838181FF44C39E012F5F3F4F3901B9
:103FF000F7019381F10193FD859193FF81911F0159
:10400000882309F431C3853239F493FD859193FFF8
:1040100081911F01853239F4B70190E00E94292572
:1040200056016501E5CF10E0512C912CFFE1F91507
:10403000D8F08B3279F038F4803279F08332A1F401
:10404000F92DF0612EC08D3261F0803369F4292D95
:1040500021602DC0392D3260932E892D8460982ED9
:104060002AC0E92DE86015C097FC2DC020ED280F6F
:104070002A3088F496FE06C03AE0139F200D1124E2
:10408000122F19C08AE0589E200D1124522EE92DBE
:10409000E0629E2E10C08E3231F496FCE5C2F92DFE
:1040A000F0649F2E08C08C3621F4292D2068922EB2
:1040B00002C0883641F4F10193FD859193FF81910F
:1040C0001F018111B3CF9BEB980F933020F4992DF2
:1040D0009061805E07C09BE9980F933008F066C13D
:1040E000992D9F7E96FF16E09F73992E853619F4C1
:1040F0009064992E08C0863621F4392F3068932EAB
:1041000002C01111115097FE07C01C3350F4442413
:104110004394410E27E00BC0183038F027E017E039
:1041200005C027E09CE3492E02C0212F412C5601F7
:1041300084E0A80EB11CF6016081718182819381B7
:10414000042DA3010E943B246C01F981FC87F0FF40
:1041500002C0F3FF06C091FC06C092FE06C000E25A
:1041600005C00DE203C00BE201C000E08C858C703D
:1041700019F001115AC29BC297FE10C04C0CFC856D
:10418000F4FF04C08A81813309F44A94141474F54D
:1041900028E0241578F588E0482E2CC096FC2AC02B
:1041A000812F90E08C159D059CF03CEFC3163FEFEE
:1041B000D30674F0892D8068982E0AC0E2E0F0E002
:1041C000EC0FFD1FE10FF11D8081803319F41150B8
:1041D0001111F4CF97FE0EC044244394410E812F59
:1041E00090E0C816D9062CF41C1904C0442443944A
:1041F00001C010E097FE06C01C141D0434F4C60173
:10420000019605C085E090E002C081E090E00111D8
:104210000196112331F0212F30E02F5F3F4F820FA5
:10422000931F252D30E08217930714F4581A01C00C
:10423000512C892D897049F4552039F0B70180E25D
:1042400090E00E9429255A94F7CF002329F0B70166
:10425000802F90E00E94292593FC09C0552039F059
:10426000B70180E390E00E9429255A94F7CF97FE8A
:104270004CC04601D7FE02C0812C912CC601881982
:104280009909F301E80FF91FFE87ED8796012419BC
:104290003109388B2F87012F10E0119501951109F5
:1042A0003FEF8316930629F4B7018EE290E00E9457
:1042B0002925C814D9044CF08F859889881599054B
:1042C00024F4ED85FE85818101C080E3F1E08F1A41
:1042D00091082D853E852F5F3F4F3E872D878016A5
:1042E00091062CF0B70190E00E942925D9CFC8147F
:1042F000D90441F49A81963320F4953319F43C851E
:1043000034FF81E3B70190E04EC08A81813319F018
:104310009C859F7E9C87B70190E00E942925111102
:1043200005C094FC18C085E690E017C0B7018EE286
:1043300090E00E9429251E5F82E001E0080FF30152
:10434000E80FF11D8081B70190E00E942925802FA0
:104350000113F3CFE6CF85E490E0B7010E94292551
:10436000D7FC06C0C114D10441F4EC85E4FF05C0BC
:10437000D194C194D1088DE201C08BE2B70190E0E5
:104380000E94292580E32AE0C216D1042CF08F5F19
:10439000FAE0CF1AD108F7CFB70190E00E942925A3
:1043A000B701C601C0960E94292554C1833631F059
:1043B000833779F0833509F056C020C0560132E0CA
:1043C000A30EB11CF6018081898301E010E0630136
:1043D00012C05601F2E0AF0EB11CF601C080D180D0
:1043E00096FE03C0612F70E002C06FEF7FEFC60141
:1043F0000E941E258C01F92DFF7714C0560122E082
:10440000A20EB11CF601C080D18096FE03C0612FC0
:1044100070E002C06FEF7FEFC6010E9413258C0190
:10442000F92DF0689F2EF3FD1AC0852D90E0081736
:104430001907A8F4B70180E290E00E9429255A9458
:10444000F4CFF60197FC859197FE81916F01B7013A
:1044500090E00E94292551105A940150110901152C
:10446000110579F7F7C0843611F0893661F55601E8
:1044700097FE09C024E0A20EB11CF6016081718193
:10448000828193810AC0F2E0AF0EB11CF601608117
:104490007181072E000C880B990BF92DFF769F2E4A
:1044A00097FF09C090958095709561957F4F8F4FCC
:1044B0009F4FF0689F2E2AE030E0A3010E946525FF
:1044C000C82EC6183FC0092D853721F40F7E2AE07B
:1044D00030E01DC0097F8F3691F018F4883559F00F
:1044E000C3C0803719F0883711F0BEC0006104FFE7
:1044F00009C0046007C094FE08C0066006C028E03A
:1045000030E005C020E130E002C020E132E0560199
:1045100007FF09C084E0A80EB11CF601608171811B
:104520008281938108C0F2E0AF0EB11CF601608178
:10453000718180E090E0A3010E946525C82EC61815
:104540000F77902E96FE0BC0092D0E7FC11650F4EA
:1045500094FE0AC092FC08C0092D0E7E05C0DC2C1A
:10456000092D03C0DC2C01C0D12E04FF0DC0FE01BB
:10457000EC0DF11D8081803311F4097E09C002FF2A
:1045800006C0D394D39404C0802F867809F0D394C6
:1045900003FD11C000FF06C01C2DD51480F4150DBD
:1045A0001D190DC0D51458F4B70180E290E00E94A7
:1045B0002925D394F7CFD51410F45D1801C0512CE0
:1045C00004FF10C0B70180E390E00E94292502FF9C
:1045D00017C001FD03C088E790E002C088E590E0C5
:1045E000B7010CC0802F867859F001FF02C08BE222
:1045F00001C080E207FD8DE2B70190E00E9429250D
:10460000C11638F4B70180E390E00E9429251150CB
:10461000F7CFCA94F301EC0DF11D8081B70190E052
:104620000E942925C110F5CF15C0F4E0F51560F5FD
:1046300084E0581A93FE1FC0011127C02C8523FF68
:104640002AC00AEC10E0392D3071932EF8018491C4
:10465000811124C0552009F4E4CCB70180E290E038
:104660000E9429255A94F6CFF7018681978126C0AA
:104670008FEF9FEF23C0B70180E290E00E942925D1
:104680005A945110F8CFD8CF512CB701802F90E019
:104690000E942925D3CF0EEC10E0D5CF9110805287
:1046A000B70190E00E9429250F5F1F4FCFCF23E075
:1046B000251510F483E0BDCF512CC0CF6096E2E108
:1046C0000C947E232F923F924F925F926F927F9233
:1046D0008F929F92AF92BF92CF92DF92EF92FF9212
:1046E0000F931F93CF93DF93CDB7DEB7CA1BDB0BBE
:1046F0000FB6F894DEBF0FBECDBF09942A88398863
:1047000048885F846E847D848C849B84AA84B98469
:10471000C884DF80EE80FD800C811B81AA81B98175
:10472000CE0FD11D0FB6F894DEBF0FBECDBFED0189
:1047300008958F929F92AF92BF92CF92DF92EF92A5
:10474000FF92CF93DF93EC01688179818A819B810D
:10475000611571058105910521F464E279ED8BE520
:1047600097E02DE133EF41E050E00E94D925490167
:104770005A019B01AC01A7EAB1E40E94F8256B0144
:104780007C01ACEEB4EFA50194010E940626DC0189
:10479000CB018C0D9D1DAE1DBF1DB7FF03C0019742
:1047A000A109B04888839983AA83BB83BC01CD014A
:1047B0009F77DF91CF91FF90EF90DF90CF90BF90E8
:1047C000AF909F908F9008958F929F92AF92BF92DB
:1047D000CF92DF92EF92FF92609100017091010100
:1047E0008091020190910301611571058105910588
:1047F00021F464E279ED8BE597E02DE133EF41E0C0
:1048000050E00E94D92549015A019B01AC01A7EA59
:10481000B1E40E94F8256B017C01ACEEB4EFA50178
:1048200094010E940626DC01CB018C0D9D1DAE1D5E
:10483000BF1DB7FF03C00197A109B04880930001D5
:1048400090930101A0930201B0930301BC01CD013B
:104850009F77FF90EF90DF90CF90BF90AF909F90A9
:104860008F9008956093000170930101809302017D
:10487000909303010895283008F027E03327DA01E8
:10488000990F311D87FD916000966105710539F41E
:1048900032602E5F3D9330E32A95E1F708959F3F04
:1048A00030F080387105610509F03C5F3C5F3D9355
:1048B000913008F08068911DDF93CF931F930F9381
:1048C000FF92EF92192F987F9695E92F96959695DE
:1048D000E90FFF27E45DFE4F99273327EE24FF24DD
:1048E000A701E70105900894079428F4360FE71E06
:1048F000F81E491F511D660F771F881F991F0694C8
:10490000A1F70590079428F4E70EF81E491F561FDB
:10491000C11D770F881F991F661F0694A1F7059088
:10492000079428F4F80E491F561FC71FD11D880F82
:10493000991F661F771F0694A1F70590079420F42E
:10494000490F561FC71FD81F990F661F771F881F53
:104950000694A9F784911095177041F0D695C795E4
:1049600057954795F794E7941A95C1F7E2EDF0E073
:1049700068941590159135916591959105907FE218
:104980007395E118F10A430B560BC90BD009C0F718
:10499000E10CF11E431F561FC91FD01D7EF470335A
:1049A00011F48A95E6CFE894015030F0080F0AF42C
:1049B0000027021708F4202F2395022F7A3328F0BE
:1049C00079E37D932A95E9F710C07D932A9589F6BE
:1049D000069497956795379517951794E118F10AFE
:1049E000430B560BC90BD00998F023957E91739514
:1049F0007A3308F070E37C932013B8F77E917061EE
:104A00007D9330F0839571E37D9370E32A95E1F710
:104A10001124EF90FF900F911F91CF91DF91992773
:104A200087FD90950895FC0105906150704001103C
:104A3000D8F7809590958E0F9F1F0895FC016150C7
:104A4000704001900110D8F7809590958E0F9F1FB0
:104A500008950F931F93CF93DF93FB01238121FDD3
:104A600003C08FEF9FEF2CC022FF16C046815781F5
:104A7000248135814217530744F4A081B1819D01FF
:104A80002F5F3F4F318320838C93268137812F5FA7
:104A90003F4F3783268314C08B01EC01FB01008458
:104AA000F185E02D0995892BE1F6D80116968D91B7
:104AB0009C911797019617969C938E931697CE010B
:104AC000DF91CF911F910F910895FA01AA27283005
:104AD00051F1203181F1E8946F936E7F6E5F7F4FCB
:104AE0008F4F9F4FAF4FB1E03ED0B4E03CD0670F47
:104AF000781F891F9A1FA11D680F791F8A1F911D9A
:104B0000A11D6A0F711D811D911DA11D20D009F4E9
:104B100068943F912AE0269F11243019305D31932B
:104B2000DEF6CF010895462F4770405D4193B3E014
:104B30000FD0C9F7F6CF462F4F70405D4A3318F0BB
:104B4000495D31FD4052419302D0A9F7EACFB4E06C
:104B5000A6959795879577956795BA95C9F7009724
:104B60006105710508959B01AC010A2E06945795C5
:104B7000479537952795BA95C9F7620F731F841F1C
:104B8000951FA01D0895F999FECF92BD81BDF89A99
:104B9000992780B50895262FF999FECF1FBA92BDA7
:104BA00081BD20BD0FB6F894FA9AF99A0FBE01960E
:104BB0000895052E97FB1EF400940E94F02557FDE2
:104BC00007D00E940B2607FC03D04EF40C94F0256E
:104BD00050954095309521953F4F4F4F5F4F089529
:104BE00090958095709561957F4F8F4F9F4F089559
:104BF0000E942D26A59F900DB49F900DA49F800D1F
:104C0000911D11240895B7FF0C94F8250E94F825F2
:104C1000821B930B0895A1E21A2EAA1BBB1BFD0158
:104C20000DC0AA1FBB1FEE1FFF1FA217B307E4078B
:104C3000F50720F0A21BB30BE40BF50B661F771FE3
:104C4000881F991F1A9469F76095709580959095C3
:104C50009B01AC01BD01CF010895A29FB001B39F9C
:104C6000C001A39F700D811D1124911DB29F700D75
:104C7000811D1124911D089597FB072E16F40094B1
:104C800007D077FD09D00E94502607FC05D03EF4DE
:104C9000909581959F4F0895709561957F4F0895E8
:104CA000AA1BBB1B51E107C0AA1FBB1FA617B70752
:104CB00010F0A61BB70B881F991F5A95A9F780956E
:104CC0009095BC01CD010895EE0FFF1F0590F49162
:104CD000E02D09945058BB27AA270E9482260C94E5
:104CE00091270E94582738F00E945F2720F039F45E
:104CF0009F3F19F426F40C9455270EF4E095E7FB3A
:104D00000C944F27E92F0E94B62758F3BA17620771
:104D100073078407950720F079F4A6F50C94D8273B
:104D20000EF4E0950B2EBA2FA02D0B01B9019001C6
:104D30000C01CA01A0011124FF27591B99F0593F0A
:104D400050F4503E68F11A16F040A22F232F342F52
:104D50004427585FF3CF469537952795A795F040A0
:104D60005395C9F77EF41F16BA0B620B730B840BB5
:104D7000BAF09150A1F0FF0FBB1F661F771F881F6D
:104D8000C2F70EC0BA0F621F731F841F48F48795C5
:104D900077956795B795F7959E3F08F0B0CF9395B7
:104DA000880F08F09927EE0F9795879508950E9430
:104DB0006827E3950C94A2270E94E3266894B1111A
:104DC0000C94D92708950E94BE2788F09F5798F029
:104DD000B92F9927B751B0F0E1F0660F771F881F00
:104DE000991F1AF0BA95C9F714C0B13091F00E941A
:104DF000D827B1E008950C94D827672F782F8827FB
:104E0000B85F39F0B93FCCF3869577956795B39540
:104E1000D9F73EF490958095709561957F4F8F4FAF
:104E20009F4F0895E89409C097FB3EF490958095B4
:104E3000709561957F4F8F4F9F4F9923A9F0F92F60
:104E400096E9BB279395F695879577956795B795DE
:104E5000F111F8CFFAF4BB0F11F460FF1BC06F5FC4
:104E60007F4F8F4F9F4F16C0882311F096E911C0D6
:104E7000772321F09EE8872F762F05C0662371F0F7
:104E800096E8862F70E060E02AF09A95660F771F0B
:104E9000881FDAF7880F9695879597F9089597F9FF
:104EA0009F6780E870E060E008959FEF80EC0895D0
:104EB00000240A94161617061806090608950024F9
:104EC0000A94121613061406050608950C94552725
:104ED0000E94BE27D8F3E894E0E0BB279F57F0F08C
:104EE0002AED3FE049EC06C0EE0FBB0F661F771FAF
:104EF000881F28F0B23A62077307840728F0B25A75
:104F0000620B730B840BE3959A9572F7803830F43B
:104F10009A95BB0F661F771F881FD2F790480C9495
:104F20005628092E0394000C11F4882352F0BB0F6D
:104F300040F4BF2B11F460FF04C06F5F7F4F8F4FB1
:104F40009F4F0895EF93E0FF07C0A2EA2AED3FE0EC
:104F500049EC5FEB0E9482260E9491270F900394F8
:104F600001FC9058ECEAF0E00C94622857FD905850
:104F7000440F551F59F05F3F71F04795880F97FB1D
:104F8000991F61F09F3F79F08795089512161306D7
:104F90001406551FF2CF4695F1DF08C01616170606
:104FA0001806991FF1CF869571056105089408953B
:104FB000E894BB2766277727CB0197F908950E94CD
:104FC000F2270C9491270E94582738F00E945F27FF
:104FD00020F0952311F00C944F270C9455271124A1
:104FE0000C94D9270E94B62770F3959FC1F3950FB3
:104FF00050E0551F629FF001729FBB27F00DB11D5D
:10500000639FAA27F00DB11DAA1F649F6627B00DEC
:10501000A11D661F829F2227B00DA11D621F739FD5
:10502000B00DA11D621F839FA00D611D221F749FE3
:105030003327A00D611D231F849F600D211D822F2A
:10504000762F6A2F11249F5750409AF0F1F0882351
:105050004AF0EE0FFF1FBB1F661F771F881F91507E
:105060005040A9F79E3F510580F00C944F270C94B7
:10507000D9275F3FE4F3983ED4F3869577956795FB
:10508000B795F795E7959F5FC1F7FE2B880F911DA8
:105090009695879597F908959F930E9468270F909A
:1050A00007FCEE5F0C94A2279F3F31F0915020F453
:1050B000879577956795B795880F911D96958795F4
:1050C00097F908959F938F937F936F93FF93EF9337
:1050D0009B01AC010E94DF27EF91FF910E9476288F
:1050E0002F913F914F915F910C94DF27DF93CF93E6
:1050F0001F930F93FF92EF92DF927B018C016894D4
:1051000006C0DA2EEF010E94F227FE01E894A59175
:105110002591359145915591A6F3EF010E94822684
:10512000FE019701A801DA9469F7DF90EF90FF90F4
:0E5130000F911F91CF91DF910895F894FFCF5A
:10513E00010000000101B400000010430000004017
:10514E000000C0400000804100008040000020416F
:10515E00000000C00000E040000020C1000080C13F
:10516E00000000C10000C0C00000A0C000006443E9
:10517E000000E0400000C0C0000080410000804000
:10518E000000604100000041000080C1000040C1ED
:10519E000000C04000004040000040C00000E0C0E1
:1051AE0000008D430000E0400000C0C000008040C1
:1051BE00000000C00000A0C000008041000060415F
:1051CE0000000041000040C1000080C10000C0404E
:1051DE0000004040000040C00000E0C00000803FE2
:1051EE0000000000000000000000000000000000B1
:1051FE000000803F000000000000000000000000E2
:10520E000000000000000000000000000000000090
:10521E0000000000000000000000803FE90DD806ED
:10522E002C047C02040270013C010801500224028D
:10523E00F801CC010000B1430000E040000000C0C6
:10524E000000A0C00000C0C0000000C100008040EF
:10525E000000004000008041000080C1000000807E
:10526E0000006041000070C1000040C00000C0405E
:10527E0000000041000040C1000060C1000040403D
:10528E000000E0C0000000000000E0400000000050
:02529E004510B9
:00000001FF
